90HDR20260509VISACTFPROD                                                                                                                                              
050041112222000010006000000000400840000000000400840000000000400840260509015139RRN000000000TERM0000SAMPLE_MERCHANT_0       RIYADH       SA5411                                   
060041112222000010016000000000400840000000000400840000000000400840260509015139RRN000000001TERM0001SAMPLE_MERCHANT_1       RIYADH       SA5411                                   
070041112222000010026000000000400840000000000400840000000000400840260509015139RRN000000002TERM0002SAMPLE_MERCHANT_2       RIYADH       SA5411                                   
150041112222000010036000000000400840000000000400840000000000400840260509015139RRN000000003TERM0003SAMPLE_MERCHANT_3       RIYADH       SA5411                                   
330041112222000010046000000000400840000000000400840000000000400840260509015139RRN000000004TERM0004SAMPLE_MERCHANT_4       RIYADH       SA5411                                   
050041112222000010056000000000400840000000000400840000000000400840260509015139RRN000000005TERM0005SAMPLE_MERCHANT_5       RIYADH       SA5411                                   
060041112222000010066000000000400840000000000400840000000000400840260509015139RRN000000006TERM0006SAMPLE_MERCHANT_6       RIYADH       SA5411                                   
070041112222000010076000000000400840000000000400840000000000400840260509015139RRN000000007TERM0007SAMPLE_MERCHANT_7       RIYADH       SA5411                                   
150041112222000010086000000000400840000000000400840000000000400840260509015139RRN000000008TERM0008SAMPLE_MERCHANT_8       RIYADH       SA5411                                   
330041112222000010096000000000400840000000000400840000000000400840260509015139RRN000000009TERM0009SAMPLE_MERCHANT_9       RIYADH       SA5411                                   
050041112222000010106000000000400840000000000400840000000000400840260509015139RRN000000010TERM0010SAMPLE_MERCHANT_10      RIYADH       SA5411                                   
060041112222000010116000000000400840000000000400840000000000400840260509015139RRN000000011TERM0011SAMPLE_MERCHANT_11      RIYADH       SA5411                                   
070041112222000010126000000000400840000000000400840000000000400840260509015139RRN000000012TERM0012SAMPLE_MERCHANT_12      RIYADH       SA5411                                   
150041112222000010136000000000400840000000000400840000000000400840260509015139RRN000000013TERM0013SAMPLE_MERCHANT_13      RIYADH       SA5411                                   
330041112222000010146000000000400840000000000400840000000000400840260509015139RRN000000014TERM0014SAMPLE_MERCHANT_14      RIYADH       SA5411                                   
050041112222000010156000000000400840000000000400840000000000400840260509015139RRN000000015TERM0015SAMPLE_MERCHANT_15      RIYADH       SA5411                                   
060041112222000010166000000000400840000000000400840000000000400840260509015139RRN000000016TERM0016SAMPLE_MERCHANT_16      RIYADH       SA5411                                   
070041112222000010176000000000400840000000000400840000000000400840260509015139RRN000000017TERM0017SAMPLE_MERCHANT_17      RIYADH       SA5411                                   
150041112222000010186000000000400840000000000400840000000000400840260509015139RRN000000018TERM0018SAMPLE_MERCHANT_18      RIYADH       SA5411                                   
330041112222000010196000000000400840000000000400840000000000400840260509015139RRN000000019TERM0019SAMPLE_MERCHANT_19      RIYADH       SA5411                                   
050041112222000010206000000000400840000000000400840000000000400840260509015139RRN000000020TERM0020SAMPLE_MERCHANT_20      RIYADH       SA5411                                   
060041112222000010216000000000400840000000000400840000000000400840260509015139RRN000000021TERM0021SAMPLE_MERCHANT_21      RIYADH       SA5411                                   
070041112222000010226000000000400840000000000400840000000000400840260509015139RRN000000022TERM0022SAMPLE_MERCHANT_22      RIYADH       SA5411                                   
150041112222000010236000000000400840000000000400840000000000400840260509015139RRN000000023TERM0023SAMPLE_MERCHANT_23      RIYADH       SA5411                                   
330041112222000010246000000000400840000000000400840000000000400840260509015139RRN000000024TERM0024SAMPLE_MERCHANT_24      RIYADH       SA5411                                   
050041112222000010256000000000400840000000000400840000000000400840260509015139RRN000000025TERM0025SAMPLE_MERCHANT_25      RIYADH       SA5411                                   
060041112222000010266000000000400840000000000400840000000000400840260509015139RRN000000026TERM0026SAMPLE_MERCHANT_26      RIYADH       SA5411                                   
070041112222000010276000000000400840000000000400840000000000400840260509015139RRN000000027TERM0027SAMPLE_MERCHANT_27      RIYADH       SA5411                                   
150041112222000010286000000000400840000000000400840000000000400840260509015139RRN000000028TERM0028SAMPLE_MERCHANT_28      RIYADH       SA5411                                   
910000010000000000290000000000011600                                                                                                                                    
920000000000010000000000290000000000011600                                                                                                                                    
